:10000000A8210020491F0000451F0000451F0000D7
:1000100000000000000000000000000000000000E0
:10002000000000000000000000000000451F00006C
:100030000000000000000000451F0000451F0000F8
:10004000451F0000451F0000451F0000451F000020
:10005000451F0000451F0000451F0000451F000010
:10006000451F000079180000891800009918000049
:10007000A9180000B9180000C91800007508000090
:100080008508000095080000451F0000451F00007E
:10009000451F0000451F0000451F0000890D00009E
:1000A000451F0000451F0000451F0000451F0000C0
:1000B00010B5064C2378002B07D1054B002B02D03E
:1000C000044800E000BF0123237010BD740000202D
:1000D00000000000E041000008B5084B002B03D0F1
:1000E0000748084900E000BF07480368002B03D019
:1000F000064B002B00D0984708BDC046000000000A
:10010000E041000078000020E04100000000000015
:1001100010B58CB06846144B984701236A4613709B
:100120000223537080239B00538000231373C0234A
:100130005B01D3810D4C201C0D490E4B9847236861
:100140005A7E52B2002AFBDB802109040A4A116060
:10015000197802220A431A70044B1A68537E5BB264
:10016000002BFBDB0CB010BD0D090000840100204A
:10017000004000425509000000E100E070B5AAB05F
:1001800001AC134E201C311C124B98470323A37261
:100190000023E372104B63600223237601229E2327
:1001A000E2542C23236705229023E2500B4D281C98
:1001B000311C221C0A4B98472A6802219368194275
:1001C000FCD1116802230B4313602AB070BDC046F6
:1001D00000200042D9020000204E0000DC00002078
:1001E0002504000010B50B4B19680B4B98470B49C1
:1001F0000B4B98470B4B9847041CFA21890041434D
:1002000009480A4B98470A480221221C094B984783
:1002100010BDC046000000200527000000800944F2
:100220002D240000FD230000DC3E0000D92F00003B
:10023000DC0000201D080000031C084A90420AD080
:10024000074A904205D00020064A934205D1022079
:1002500002E0012000E00020C0B270470020004210
:100260000024004200280042F0B5474680B40E1C2E
:10027000171C98460468201C14498847144B1B5CC3
:100280001725B3421DD98000124BC358BB4218D367
:100290004346002B0AD080221203B240A3681342C7
:1002A000FCD11C36B600375100250AE080225200EE
:1002B000B240A3681342FCD11036B600A41967609F
:1002C0000025281C04BC9046F0BDC0463902000041
:1002D000FC3E0000F03E000010B5041C081C4F4B13
:1002E00098470023236080004D4A80586060A372C5
:1002F000E372237363722372E36123626362A36216
:1003000023756375A375E37523766376237463742D
:10031000A374E3742C22A3542D22A3542E22A3549D
:100320002F22A3543022A3543122A3543222A354A7
:100330003322A3543422A3543522A3543622A35487
:100340003722A3543822A3543922A3543A22A35467
:100350003B22A3543C22A3543D22A3543E22A35447
:100360003F22A3544022A3544122A3544222A35427
:100370004322A3544422A3544522A3544622A35407
:100380004722A3544822A3544922A3544A22A354E7
:100390004B22A3544C22A3544D22A3544E22A354C7
:1003A0004F22A3545022A3545122A3545222A354A7
:1003B0005322A3545422A3545522A3545622A35487
:1003C0005722A3549822A354A365A3679922A35448
:1003D000E365E3679A22A35423668022A3509B22FD
:1003E000A35463668422A3509C22A354A36688224C
:1003F000A3509D22A354E3668C22A3509E22A354B3
:1004000023679022A3509F22A35463679422A35092
:100410000121A022A154A122A35410BD3902000041
:10042000F03E0000F0B55F4656464D464446F0B4F7
:100430008FB080460C1C161C081CDB4B9847051C13
:10044000071CDA4B196A8000D94A82580A431A629B
:1004500023681C20990700D5D9E12368DA0700D565
:10046000D5E1AB00D34A9B58172031688B4200D2AC
:10047000CDE17268934200D2C9E1F069834200D2B3
:10048000AEE1316A8B4200D2ACE1726A934200D293
:10049000AAE1B06A834200D2A8E10023C649F2185B
:1004A00098321278002A03D0CA5D9A4200DC9FE19C
:1004B0000133082BF3D100218B460023802149040E
:1004C0008C465846F218127C012A07D1BB49CA5DF6
:1004D0009A4200DA8EE162469A4010430133042BBF
:1004E000F0D18346A123F35C002B04D080231B01B1
:1004F000021C1A439346337B0793F07A0890337AB1
:100500005A1E93419B000593737A012B02D10599E2
:1005100019430591A94B5B5D0493331C2C335A7A24
:10052000049B934200D871E12C23F15C0F2900D980
:100530006CE1331C2C33301C363003900CA8814600
:100540000DA802904846BC465F460997A146B246B0
:10055000AB460DE0039B5A7A0499914200D855E1CD
:1005600019781C1C0A34039404300F2900D94DE17A
:100570000D06F0273F053D405C7824049F78791EE6
:100580008F41FF010197D9784E1EB141C9001E79F4
:10059000771EBE4136019202C0273F013A40154303
:1005A0005A7903273A4015432C439A795201602522
:1005B0002A401443DA791202C027BF003A4014439C
:1005C0001A7A1203E023DB011A402243019F1743EA
:1005D00039430E430660029CA042BBD167464C469D
:1005E00056465D4609988346734B585D52464132E4
:1005F000002189460023802149028C4601218A4638
:10060000211C041C48468946F118503109780029FC
:1006100005D09C4200D8EFE061469940084311782C
:1006200000290CD09C4200D8E8E0022904D1022124
:10063000FF319940084302E0514699400843013395
:100640000232082BE0D14C4681465C4B5B5D049343
:10065000737E1B0130221A40337E07210B401A4360
:1006600003920023311C1031802040028446CA18B6
:100670001279002A08D0049A9A4200DCC0E062464F
:100680009A400398104303900133042BEFD10023C9
:10069000191C4046C21851600433302BFAD1002394
:1006A00043638363AA00464BD0500460A023F25CEE
:1006B0003C23C2540BA9B37A0B70424B5B5D984646
:1006C000181C414B98474046404B98473A4B5B5D5E
:1006D000002B27DD782189190025374A9246231CF3
:1006E0000C1C9846731998331B78002B13D00123E8
:1006F0002A206844037000222B2169440A70206874
:100700000AAA1070292169440B70231C203B187819
:10071000111C2F4A9047013504345046C35DAB424B
:10072000E0DC4446089D2A02079F3B0313435846DA
:10073000034323600422A3681A42FCD1FF232371E0
:100740000422A3681A42FCD1059D65710C9FE760E5
:100750000D9820614946A1611E4AA3681342FCD14D
:10076000039DE5631022A3681A42FCD137686763D2
:10077000194AA3681342FCD17068206404980028C9
:1007800040DD1C360021154D2A1C8A40A368134207
:10079000FCD104CE0B1C10339B00E3185A600131CE
:1007A0008842F1DC30E0C04639020000000400401D
:1007B000E43E0000F03E0000003F0000FC3E000070
:1007C0001C010020E03E0000151E0000891D0000F5
:1007D000F11E00004000020080000400000108003B
:1007E000172014E0172012E0172010E017200EE069
:1007F00017200CE017200AE0172008E0172006E079
:10080000172004E0002002E0002000E017200FB0D5
:100810003CBC90469946A246AB46F0BD10B53C2381
:10082000C35C014CA04710BD69020000F0B547460B
:1008300080B480000D4BC6583368DB6A726B13407E
:10084000B26B1A4090460024094FE55943462B42AB
:1008500005D033195B68301C98473368DD62043477
:10086000302CF2D104BC9046F0BDC0461C010020E3
:10087000043F000008B50020014B984708BDC04662
:100880002D08000008B50120014B984708BDC0465F
:100890002D08000008B50220014B984708BDC0464E
:1008A0002D08000010B50020084B9847084CFA218D
:1008B0008900A047074B1860FA218900A047064B22
:1008C00018600522054B1A6010BDC046FD1C0000D3
:1008D00019230000080000200400002010E000E0C0
:1008E00030B5084B1C68084A00258021490206E003
:1008F000002C04D05460956013680B42FCD0013882
:10090000F6D230BD0800002010E000E010B5002253
:10091000002302704270002142800171037602625E
:10092000C26182600373C0246401C4810374437490
:100930008374C37403752A24035543758375242473
:100940000355C2840285C1752B23C1542C23C15485
:1009500010BDC046F0B55F4656464D464446F0B41D
:1009600099B0061C141C0160BA4B186A802252020E
:1009700002431A620B780520DA0700D5F4E10B7800
:100980001C20990700D5EFE163783371002B00D06C
:10099000DAE1B14B196C04220A431A64D4E1237DD5
:1009A000002B02D10123737701E0002373773268B3
:1009B00001922378684603721E2002A9A74B98472C
:1009C0001E20A74B98472C23E35C002B42D02B2200
:1009D000A55C217B88464A19D2B2D318DBB299466E
:1009E0009A4221D29F4A93469F4B9A460F272F4007
:1009F000237BFF1804A859465022D047132F0CD848
:100A0000BF0004ABF85803A900234B70CB708B7068
:100A100001230B70C0B2954A90470135EDB24046B4
:100A20004319DBB24B45E1D3E58904A88D49502237
:100A30008D4B9847132D37D8AD0004ABE85803A968
:100A400000234B70CB708B7001230B70C0B2874BAF
:100A5000984729E0257B04A882495022824B984779
:100A6000132D0CD8AD0004ABE85803A900234B703C
:100A7000CB708B7001230B70C0B27C4B9847E5891B
:100A800004A878495022784B9847132D0CD8AD0014
:100A900004ABE85803A900234B70CB708B70012383
:100AA0000B70C0B2714B9847637D9B00DBB201991C
:100AB0000B70A37DDB0162781343DBB24B702379AB
:100AC000342B00D93EE19B00694AD3589F4602224D
:100AD000102501231AE0637C227C102516E00622F3
:100AE0001025012312E00822102500230EE0002229
:100AF000302500230AE000222025002306E0002202
:100B00000025002302E00422102502231B0170218E
:100B10000B401343019A9370E37D17203F2B00D9BC
:100B200022E1D3703268537E5BB2002BFBDBE27CA8
:100B3000638813432422A25CD2001343227D9200D7
:100B40001343A27C520013432B4301988380237EDE
:100B5000002B01D1316895E0102D5BD002D8002D1B
:100B600038D0F7E7202D19D0302DF3D1E27C002AC0
:100B70000AD0E26980321720FF2A00D9F4E0226A05
:100B80008032FF2A00D9EFE01720E169FF2900DD5C
:100B9000EAE0226AFF2A00DDE6E0DBE7E27C002AE9
:100BA0000DD0E0698022920081181720314A9142CD
:100BB00000D9D9E0304A216A914200DBD4E0172005
:100BC0002C4AE169914200DDCEE0216A914200DDCC
:100BD000CAE0BFE7E27C002A11D0E2698020000170
:100BE00011181720254A914200D9BDE0226A8020C1
:100BF000000111181720214A914200D9B4E01720B2
:100C00001E4AE169914200DDAEE0216A914200DDB9
:100C1000AAE09FE7E27C002A11D0E269802000026E
:100C200011181720164A914200D99DE0226A8020AF
:100C3000000211181720124A914200D994E017209F
:100C40000F4AE169914200DD8EE0216A914200DDA8
:100C50008AE07FE70004004000080040151E000005
:100C6000891D000008400000B52F0000F11E0000A3
:100C7000343F0000FF03000001FEFFFFFF0F0000F4
:100C8000FFFF00004A7E52B2002AFBDB019A13727A
:100C90003268537E5BB2002BFBDBA38B019883830E
:100CA0003268537E5BB2002BFBDB238C01990B84F3
:100CB0002C23E35C002B04D0013BDBB217200F2B6D
:100CC00052D82B22A25C17200F2A4DD83168487EBB
:100CD00040B20028FBDBE089217B0143A06801438F
:100CE00012050A431B04134301990B612A23E35C99
:100CF0000B750F238B752423E35C002B10D0E38C42
:100D000017201D4A93422FD88B84238D8020000109
:100D1000191889B21720184A914225D80199CB8415
:100D2000164B1A685201E023DB001A40144B586836
:100D300041011B68DB0E0B43DBB2134301990B85AA
:100D4000002011E017200FE00023B360F36033614F
:100D5000B376F376338333770A4B1E602A23E35C42
:100D6000002B00D11BE620E619B03CBC904699460A
:100D7000A246AB46F0BDC046FF0F000024608000D5
:100D8000206080002801002038B52B4B1C682368A8
:100D90001D7EEDB2E90731D5E27ED1072ED5A27EC8
:100DA000D1072BD501221A7663699A1C62612168EA
:100DB0004A8B92B21A80238B013B9BB22383002B78
:100DC00011D0637F002B19D023685A7E52B2002ABB
:100DD000FBDB197B02220A431A732268537E5BB243
:100DE000002BFBDB0AE0237F052B07D100232377B1
:100DF000012322689375201CA368984769070BD5C7
:100E0000042322681376E37E990705D5A37E9A070B
:100E100002D5201CE3689847A9070BD50223226856
:100E20001376E37E590705D5A37E5A0702D52369B9
:100E3000201C984738BDC0462801002010B5031C6F
:100E40004908402099420CD30024C91A601C80B282
:100E50008B4201D8041CF8E74020FF2C01D81480F5
:100E6000002010BD00000000F0B55F4656464D461C
:100E70004446F0B487B0061C0D1C049210AA1078EA
:100E8000321C424340248A4200D9B3E0002B4BD1AC
:100E90000021321C5E4CA04783462E1C00270020F8
:100EA0000021002200233F24A4460125A8460290E9
:100EB00003916146203903D440468840814605E0CD
:100EC000202165464C1B4046E04081464146644631
:100ED000A1408A46101C191C80185941021C0B1C89
:100EE0005D464C46254202D0424602430B1C9F42BF
:100EF0000CD801D1964209D8921BBB415046029DA5
:100F000028434946039C2143029003916546013DD5
:100F1000AC46CED2029803993C4B3B4A121A8B4105
:100F2000120C1B041A4362E00022012B5FD14F0F09
:100F3000B946CD00AB460021321C0023344CA047FB
:100F4000061C0F1C00230125029603979A46504663
:100F5000C0B2059000218846002200233F24271CB0
:100F6000203F03D42E1CBE40019604E02020071B26
:100F7000291CF94001912E1CA6400096101C191C3A
:100F800080185941021C0B1C5F463740BC46019E2D
:100F90004F463E4067463E4302D02A1C02430B1C8C
:100FA000039898420BD802D10299914207D8029E29
:100FB000039F921BBB41474600980743B846013C3C
:100FC000CDD2414652468B1ADB08124CA34208D9B7
:100FD000059A0132D2B205920126B2445746082F33
:100FE000B5D140240598082804D042031A43049C34
:100FF00022800024201C07B03CBC90469946A246A3
:10100000AB46F0BDC046C046000000000100000035
:10101000B9230000FF1F000010B582B0041C0F4B65
:101020001B78002B01D000290DD001A90C701320D2
:101030000B4B984713200B4B9847084B5C700122D1
:101040001A70002007E0054B5A781D20141B621E01
:1010500094416442204002B010BDC0469000002080
:10106000151E0000891D0000444B984233D006D85D
:10107000434B98420DD0434B98421BD06FE0424BFC
:1010800098424AD0414B984258D0414B984266D141
:1010900032E0012965D0002904D0022906D00329B5
:1010A00006D001E03B4867E0002065E03A4863E095
:1010B0003A4861E0012956D0002904D0022906D01F
:1010C000032906D001E0032056E0002054E0344814
:1010D00052E0344850E0012947D0002904D00229C9
:1010E00006D0032906D001E02F4845E0002043E068
:1010F0002E4841E02E483FE0012938D0002904D095
:10110000022906D0032906D001E02A4834E0002055
:1011100032E0294830E029482EE0012929D0002971
:1011200004D0022906D0032906D001E0244823E098
:10113000002021E023481FE023481DE001291AD0A8
:10114000002904D0022906D0032906D001E01F4857
:1011500012E0002010E01E480EE01E480CE00020C7
:101160000AE01D4808E01D4806E01D4804E01D484F
:1011700002E01D4800E01D487047C04600100042D4
:1011800000080042000C004200180042001C00420F
:1011900000140042030004000300060003000700DF
:1011A00003001E0003001F000300080003000A00E4
:1011B00003000B00030010000300120003001300E3
:1011C00003000C0003000E0003000F0003001600D4
:1011D00003001800030019000300050003000100CC
:1011E000030009000300110003000D0003001700B5
:1011F00070B586B00C4A6B4670CA70C332CA32C32F
:10120000009E864206D001239A00694652588242C7
:1012100003D100E00023D8B203E00133062BF3D161
:10122000002006B070BDC04658400000F0B54746EB
:1012300080B40C1C904600280CD1002A0DDD8F18BC
:10124000094E0A4D3068211C2B6898470134BC4276
:10125000F8D104E00120404202E0002000E04046D6
:1012600004BC9046F0BDC046340100202C01002093
:10127000F0B5474680B40E1C151C0138022810D862
:10128000002A11D000240D4B98460D4F4346186894
:10129000315D3B689847002808DB0134A542F5D151
:1012A00007E00120404205E0002003E00120404229
:1012B00000E0201C04BC9046F0BDC0463401002074
:1012C00030010020F0B55F4656464D464446F0B426
:1012D00091B0051C0C1C161C2960081CAD4B9847CE
:1012E000021C23680520D90700D54BE123681C2088
:1012F0009F0700D546E1A84B186A911C01278F4033
:10130000391C014319620FA92D27F35D0B701432AC
:10131000D2B29046101CA14B98474046A04B98472C
:10132000F05D00219F4B9847F37A6B712423F35CA7
:10133000AB712523F35CEB71F37E2B72337F6B7201
:1013400029688846081C934B9847143000226B4646
:10135000DA84328A02928023DB019A4221D08023F0
:10136000DB019A4204D880239B019A4211D008E005
:10137000C023DB01029F9F420FD080231B029F42AC
:1013800003D01027069700270EE0032706970027B3
:101390000AE010270697012706E00827069701278D
:1013A00002E008270697002731680391F26891460A
:1013B00073690493317E8A462623F35C9B467368E7
:1013C000002B13D08022520593422ED12723F35CA9
:1013D000002B2ED1376AC0B2734B9847011C381CC2
:1013E0006A462632714B9847031C1FE02723F35CA3
:1013F000002B0AD0069A0092306AB16A6A462632F9
:101400003B1C6B4FB847031C10E0316A0791C0B218
:10141000654B9847011C069A009207986A46263247
:101420003B1C634FB847031C00E00023181E00D08C
:10143000A8E0737E002B02D0B37E41468B732A68EE
:10144000029FD369002BFCD102976B4626331B8881
:10145000424693814B46039F3B43049F3B43716845
:101460000B43029F1F43524613021F4359464B072B
:101470001F432723F35C002B01D104231F43717EFC
:101480008902337F5B021943F27AB37A134319431B
:10149000737F1B0219432423F35C5B041943252348
:1014A000F35C1B0419433389FF2B0BD0F27E002A17
:1014B00003D0A022D204174302E080225204174333
:1014C000194305E0F37E002B02D08023DB041F4389
:1014D0002C23F35C002B03D1364B9B789A0701D564
:1014E00080231F432A68D369002BFCD143465960EF
:1014F0002A68D369002BFCD141460F600EAB8022D5
:101500001A7000225A70DA709A70326B0A92736BFA
:101510000B93B76B0C97F66B0D9600270EAEF9B2D6
:10152000BB000AAA9858002802D1201C224A9047E2
:10153000431C05D03070000CC0B2311C1F4A9047CC
:101540000137042FEBD10023EB602B616B61AB61A2
:10155000EB612B62AB626B620022EB85AB853023C3
:10156000EA543123EA543223EA543323EA542868F4
:10157000084B9847041C1249124B9847A400124B81
:10158000E550002011B03CBC90469946A246AB46BF
:10159000F0BDC046F111000000040040151E00001F
:1015A000891D000019100000311E00003D0E0000D2
:1015B000690E00000020004169100000F11E0000CB
:1015C00071160000111800003801002010B5021C2F
:1015D0000368C4791C20002C0DD0D28D92B2052056
:1015E000002A08D1DA69002AFCD1198502211A7E65
:1015F0000A42FCD0002010BD10B5031C046882799B
:101600001C20002A33D09B8D9BB20520002B2ED1AD
:10161000237E5A072BD5E369002BFCD1638BDBB209
:101620009A0621D09A0703D5022363831A201EE06D
:101630005A0703D5042363831E2018E0DA0703D575
:1016400001236383132012E0DA0605D5628B102391
:101650001343638342200AE09A0605D5628B202358
:1016600013436383412002E0238D0B80002010BDD3
:10167000F8B58000644BC5582C68E369002BFCD199
:10168000237EA67D1E403123EB5C3022AF5C1F40E1
:10169000F10720D5EB8D9BB2002B1AD0AB6A1A78DC
:1016A000D2B2591CA9626979012904D15978090279
:1016B0000A430233AB62D305DB0D2385EB8D013B7F
:1016C0009BB2EB85002B06D1012323750223A37562
:1016D00001E001232375B20709D5022323750022F7
:1016E0003323EA54FB0702D5281CE96888477207B0
:1016F0006AD5AB8D9BB2002B64D0638BDBB219072C
:1017000002D43F22134001E037221340002B37D090
:101710009A0707D51A223223EA54628B0223134315
:10172000638327E0590707D51E223223EA54628BD0
:101730000423134363831DE0DA0707D51322322302
:10174000EA54628B01231343638313E0D90607D560
:1017500042223223EA54628B10231343638309E04D
:1017600020221A4206D041223223EA54628B2023DF
:10177000134363837A0727D5281C6B69984723E0B6
:10178000228DD205D20DD3B2696A0B706B6A591CD7
:1017900069626979012904D1120A5A706B6A0133AE
:1017A0006B62AB8D013B9BB2AB85002B0CD104234C
:1017B000237500223223EA54BA0705D5281C2B6969
:1017C000984701E004232375F10607D510232375FC
:1017D0002376FA0602D5281CEB699847B10607D58F
:1017E0002023237523763A0702D5281CAB69984736
:1017F000310707D5082323752376BA0602D52B6A4D
:10180000281C9847F8BDC046380100207047C046E4
:10181000F0B50A4B1B78002B0CD1094F094E0A4D2D
:101820000024DE515A1914600433182BF9D1012217
:10183000024B1A708000024BC150F0BD9400002092
:10184000980000200D1800003801002010B582B06B
:10185000041C684605490622054B9847201C054B89
:1018600098476B46185602B010BDC0467040000045
:10187000B52F0000F111000008B5024B1B680020D5
:10188000984708BD9800002008B5024B5B6801200E
:10189000984708BD9800002008B5024B9B680220BD
:1018A000984708BD9800002008B5024BDB6803206C
:1018B000984708BD9800002008B5024B1B6904201A
:1018C000984708BD9800002008B5024B5B690520C9
:1018D000984708BD980000200C4B1B68002B10D1C6
:1018E000EFF31083002B09D172B6BFF35F8F002294
:1018F000074B1A700122074B1A7002E00022054BB9
:101900001A70024B1A6801321A607047B00000204A
:101910000C000020B4000020084B1A68013A1A603D
:101920001B68002B09D1064B1B78002B05D0012228
:10193000044B1A70BFF35F8F62B67047B00000208F
:10194000B40000200C000020F0B583B001AC0125EC
:1019500065700027A77025703E20211C064EB047F9
:101960008022D205054B9A61277065700F20211CDB
:10197000B04703B0F0BDC04681190000804400416B
:1019800000B583B001AB80221A700A785A704A7889
:101990009A708A78DA70191C014B984703B000BD21
:1019A000F11E000008B5082834D880001B4B1B58D6
:1019B0009F468020000230E0194B18692DE0194B3A
:1019C000186A8005800F184BC340181C25E0144B83
:1019D000586922E0124B1B68022018401DD01149A3
:1019E0001022CB681A42FCD00D4B1B685A0713D546
:1019F00000200E4B98470A4B9B681B041B0C584356
:101A00000BE05023074AD35C00205A0705D5044B4E
:101A1000D86802E0002000E0054808BD78400000DA
:101A2000B80000200008004000127A00311E0000BB
:101A3000006CDC0270B50C4B1C6A0178857840782C
:101A40000122104080014026B44304432A40D001C3
:101A500080229443221C02430320014009020348D0
:101A600002400A431A6270BD00080040FFFCFFFFFD
:101A7000082843D88000224B1B589F4600203EE098
:101A8000204B196A02220A431A62002037E01D4BDC
:101A9000996902220A439A61002030E0194B198AA1
:101AA00002220A431A82002029E0164B998A022258
:101AB0000A439A82002022E0134B196802220A434B
:101AC0001A601A68114B1A400E4B9A84191C102286
:101AD000CB681A42FCD00C4A91680A4BD962516813
:101AE0009962126892B29A84002008E0054A442361
:101AF000D05C02210143D154002000E01720704740
:101B00009C40000000080040B80000207FFF00005B
:101B1000F0B5474680B484B0C222D200274B9A6009
:101B2000274B5A681E218A435A6002236A46137063
:101B30000024244DE0B26946A8470134252CF9D190
:101B400003A80024447001239846837004701E4B40
:101B5000984706201D4B98471D4B984743460193D5
:101B60006A46547006271770147254720120694631
:101B7000184EB0470120184DA8476B465C701F7087
:101B80001C725C720823019303206946B04703204E
:101B9000A847124B1C725C729C72424601926B46C3
:101BA0005C701F701C725C7200206946B047002098
:101BB000A84704B004BC9046F0BDC04600080040F1
:101BC00000400041151E0000351A0000711A000087
:101BD000E11B0000051C0000B91C000000040040CF
:101BE000064B996908220A439A610122044B1A7034
:101BF000191C0B781342FCD17047C046000400400A
:101C0000000C0040F8B5061C071C0D782D0205439A
:101C10004B78002B02D08023DB021D434B7A002B34
:101C200002D080231B031D434C68012C17D9631E6F
:101C30001C420FD1022C06D90223002201325B0084
:101C40009C42FBD800E000221702374380235B034D
:101C50001D4304E02702374380239B021D430B7A78
:101C6000002B02D080239B031D430F4A53785BB2A5
:101C7000002BFBDB0D4B98470D4B1E700A4A537827
:101C80005BB2002BFBDB084B9F601A1C53785BB2E6
:101C9000002BFBDB044B5968802252020A4015439B
:101CA0005D60044B9847F8BD000C0040D918000057
:101CB000080C00401919000010B5041C0B4A537899
:101CC0005BB2002BFBDB0A4B98470A4B1C70074AA0
:101CD00053785BB2002BFBDB044B59688022520225
:101CE0000A435A60044B984710BDC046000C0040A0
:101CF000D9180000040C00401919000070B5041C2C
:101D00001A4A53785BB2002BFBDB194B9847194BEF
:101D10001C70164A53785BB2002BFBDB134E7068C5
:101D2000C004C00E144B9847051C124B1C707668FB
:101D3000F602F60F114B1C700C4A53785BB2002B65
:101D4000FBDB0A4B9C68240AA4B20D4B9847002E7B
:101D500007D1012C07D9281C211C0A4B9847051CC8
:101D600001E00134E540281C70BDC046000C004075
:101D7000D9180000040C0040A5190000080C004010
:101D8000191900001923000010B5041C064B9847D0
:101D9000064B1C70064B59888022D2010A435A8098
:101DA000044B984710BDC046D9180000020C0040F3
:101DB000000C00401919000010B5041C0F4B984787
:101DC0000F4B1C700F4B58880005000F59880E4AA6
:101DD0000A405A8059880D4A0A405A80191C8022AC
:101DE000D2014B881342FCD1064B01025888064AA7
:101DF00002400A435A80064B984710BDD91800008C
:101E0000020C0040000C0040FFF0FFFFFFBFFFFF8F
:101E10001919000010B50C7824020443024B9847AE
:101E2000A4B2024B5C8010BDB91D0000000C004044
:101E300010B5041C064B9847064B1C70064B5C887B
:101E40002405240F054B9847201C054B984710BDCF
:101E5000D9180000020C0040000C004019190000C5
:101E6000FD1C000030B5D378002B1ED11378802BD9
:101E700004D01B0680246402234300E0002354782E
:101E80000225AC430AD19478002C03D18024A4020B
:101E9000234302E0C024E402234341605478013C20
:101EA000012C04D8114C234001E0416000230D04B3
:101EB0002D0CA024E4052C431C4384620D0CD0247B
:101EC00024062C431C438462D478002C0CD15C0380
:101ED00005D59378012B01D1816100E041615378F0
:101EE000013B012B00D8816030BDC046FFFFFBFFE6
:101EF00008B5031C0A1CC1090020002903D1580998
:101F0000C001044940181F210B4001219940024B98
:101F1000984708BD00440041651E00007047C04658
:101F200008B5044B9847044B9847044B9847044B1B
:101F3000984708BD111B0000491900001D1F000033
:101F40001D1F0000FEE7C04670B5022190235B0014
:101F5000284AD150284BD8780321884302221043C5
:101F6000D870DD780C24A54308200543DD70234B91
:101F70009E7B3025AE43202535439D739D7BA54335
:101F800028439873987B884302439A731C4B1D4ADD
:101F90009A4203D01C4B1A4A9A4204D31B4B1C4A48
:101FA0009A4210D31BE01B4B17480330C01A80081D
:101FB0000130800000231249124AD458CC50043317
:101FC0008342FAD1EAE7124B1A1D10490331891AEC
:101FD000890889005218002102C39342FCD10E4B9C
:101FE0007F210E4A8A439A600D4B98470D4B9847C4
:101FF000FEE7C0460070004100500041004800412B
:1020000000000020E041000074000020A801002032
:10201000740000200400002000ED00E0000000003B
:10202000692F000031220000064B1B68002B02D1F3
:10203000054A044B1A60034A136818181060181CEC
:102040007047C046D0000020A82100200120404257
:102050007047C04680239B014B6000207047C046FC
:10206000012070470020704770B582B0051C0E1C1F
:1020700000226B46DA80064C281C69460631A047D0
:102080000028F9D16B4606331B88337002B070BD4F
:10209000F915000070B5061C0D1C034C301C291CE2
:1020A000A0470028FAD170BDCD150000F0B591B061
:1020B0008023DB05009300230193FF226846028101
:1020C00000228372C37201252421455425214554E1
:1020D00026214354272143540A932C21435405932A
:1020E0000382C376027602774276132383764277A1
:1020F000E1235B02089380235B0303932D23C554E4
:10210000194B0C93194B0D9301235B420E930F93C4
:10211000174C184B1C60184A184B1A60184A194B78
:102120001A60201C18496A46184B9847184F3B689C
:1021300098680021174EB0473B6858680021B047A7
:102140002668301C144B98471F2318408540134BBA
:102150001D602268D369002BFCD13268022313432F
:10216000336011B0F0BDC046020016000200170037
:102170005001002034010020952000003001002093
:10218000692000002C01002000140042C51200004C
:10219000700000200D3000004D18000000E100E04C
:1021A00030B5224B1C68637E5BB2002BFBDB227BCD
:1021B000022313432373637E5BB2002BFBDB0121FD
:1021C00004250220227ED2B20B1C1340154200D0FF
:1021D0000343104200D02B431942F3D0227ED2B2E7
:1021E00001231340510701D502210B43910701D56B
:1021F000042213430020DA0716D5637E5BB2002B5E
:10220000FBDB608B80B201232376227ED2B21340A7
:10221000510701D502210B43910701D50422134335
:102220005A0701D50223237630BDC0468401002021
:10223000F0B5ABB0254B9847254B9847254B9847B1
:10224000254B9847254B984701AC254E201C311C47
:10225000244B98470123A3720022E272224A626053
:1022600002222276214A62629E22A3542C232367F3
:1022700005229023E2501E4D281C311C221C1D4BB0
:1022800098472B68022299680A42FCD119680222F9
:102290000A431A601848194B9847194F194E174DA1
:1022A000FA204000B847301CA847174B9847041C39
:1022B0001648211CA847B4235C43E017000D0419FD
:1022C0002013134B9847134B9847E9E7211F000051
:1022D000A50800007D010000AD20000011010000F4
:1022E00000200042D9020000204E0000102700000C
:1022F000DC00002025040000C0400000D92F0000B1
:10230000E1080000D0400000A1210000DC400000F6
:10231000852C0000E5010000002934D001230022B3
:1023200010B488422CD301242407A14204D2814254
:1023300002D209011B01F8E7E400A14204D2814264
:1023400002D249005B00F8E7884201D3401A1A43E1
:102350004C08A04202D3001B5C0822438C08A04218
:1023600002D3001B9C082243CC08A04202D3001BCE
:10237000DC082243002803D01B0901D00909E3E748
:10238000101C10BC7047002801D00020C04307B4C7
:10239000024802A14018029003BDC0461900000087
:1023A0000029F0D003B5FFF7B9FF0EBC4243891AEC
:1023B0001847C0467047C0469C460304F0B51B0C46
:1023C00017043F0C150C1E1C041C000C7E436B43B1
:1023D00047434543FB18300C1818874202D9802325
:1023E0005B02ED18030CED1863465C434A43360468
:1023F000360CA118000480194919F0BD9E2110B5B2
:10240000C905041C00F0CAFC002803D1201C00F000
:1024100019FC10BD9E21C905201C00F09DFA00F09A
:1024200011FC80231B06C018F3E7C046F8B5430231
:102430004400C50F4E024800240E2A1C9B09000EC2
:10244000C90FB6098D425BD0221A002A00DC89E050
:1024500000281DD1002E00D075E0580704D00F22AF
:102460001A40042A00D004338021C90419402A1CD0
:1024700000293AD00134FF2C00D17FE09B015B0A98
:102480005B02E4B2E405580AD20720431043F8BDCA
:10249000FF2CE2D08021C9040E431B2A00DD2DE170
:1024A000311C2020D140821A9640721E96410E4364
:1024B0009B1B5801D1D59B019F09381C00F078FC6B
:1024C000421F974094425BDC141B1F231B1B3A1CCA
:1024D0009F40611C3B1CCA405F1EBB41134300244C
:1024E000BBE7131EB9D100230022DB08FF2C04D167
:1024F000002B43D08020C00303435B025B0ABFE78D
:10250000211A002940DD002823D0FF2CA5D08020EF
:10251000C00406431B2900DDEEE0301C2027C84024
:10252000791A8E40711E8E4106439B19590100D4C1
:1025300093E70134FF2C55D0714901221A400B401A
:102540005B08134389E7013A002AB1D0FF2CA4D1DC
:1025500083E7002E00D180E701390029E5D0FF2C68
:10256000D8D17AE7002A1BD1621CD2B2012A4BDDF6
:102570009F1B7A0123D5F71A0D1C9EE700237FE7E6
:102580005F4BA41A3B4068E7002946D1611CC8B2E2
:10259000012829DDFF2924D0F3185B080C1C5CE717
:1025A000002C13D0FF2818D08024E4045242234387
:1025B0001B2A4DDD0123F31A041C0D1C79E7002FA3
:1025C00000D07AE70023002200248EE7002B3BD0C6
:1025D000D243002AEFD0FF28EAD1331CFF240D1C80
:1025E0003BE7FF24002380E7002C5CD1002B00D1C7
:1025F00080E0002E00D130E79B19580100D42CE771
:102600003F4A0124134028E7002C15D1002B40D16C
:10261000002E63D0331C0D1C1FE7002C21D1002B92
:1026200054D0C943002904D0FF284CD01B2958DDC1
:1026300001239B19041C79E7002B19D1002E48D0E7
:10264000331C0D1CFF2408E7331C041C0D1C04E77D
:102650001C1C2025D440AA1A93405A1E93412343A0
:10266000A9E7FF282FD08024E40449422343DDE773
:10267000FF24002E00D1F0E68022DB08D2031342B3
:1026800004D0F608164201D1331C0D1CDB00FF24D8
:10269000E3E6002E00D1E0E69A1B500100D420E7CB
:1026A000F31A0D1CD9E6002B0DD0FF24002E00D10B
:1026B000D3E68022DB08D2031342E7D0F6081642A5
:1026C000E4D1331CE2E7331CFF24C6E6331C041CB0
:1026D000C3E6802300229B04FF2406E7231C00227C
:1026E00003E71C1C2027CC40791A8B40591E8B41D4
:1026F00023439EE7331CB0E6012616E70126D7E602
:10270000FFFFFFFBF0B55F4656464D464446F0B42A
:102710004402460083B00F1C640A360EC50F002E1B
:1027200041D0FF2E22D080231B0400201C43E40054
:102730007F3E82468046391C4B007F02C90F7F0ACC
:102740001B0E8B463BD0FF2B34D080221204174344
:10275000FF007F3B00215A466A40019252460A43DD
:102760000F2A63D87A48920082589746002C3FD1AE
:102770000822022392469846DDE70195404602284A
:102780002AD1019A01251540FF2300246402DB05AC
:10279000600AED071843284303B03CBC90469946B5
:1027A000A246AB46F0BD002C27D104200122824670
:1027B0009046C0E7391C4A1E91410231CBE7012106
:1027C000002FC8D0381C00F0F3FA431F9F40762337
:1027D0005B421B1A0021BEE7032800D1AEE00128AE
:1027E0004FD1019842461040C5B200230024CDE7E6
:1027F0000C2303209A4680469DE7201C00F0D8FA5F
:102800007626431F9C4076420023361A9A46984605
:1028100091E780240025E403FF23B7E75B463C1CD7
:1028200001938846AAE73C1C8846A7E7250C2404A8
:102830003A0C240C3F04F6183F0C211C231C79434E
:1028400053436F435543FB180A0C9B18B1469F42F4
:1028500002D980225202AD1809041A04090C521838
:1028600094011B0C611E8C41920EED181443AD01B6
:102870002C43230105D50122630801201440814423
:102880001C434B467F33002B2DDD600704D00F2205
:102890002240042A00D00434220103D52D4B1C40D1
:1028A0004B468033FE2B17DD019B01251D40002484
:1028B000FF236BE78020C003044208D0074206D103
:1028C000041C3C436402640A5D46FF235EE7044344
:1028D0006402640AFF2359E70198A4010125640AF0
:1028E000DBB2054052E77E235B424A469B1A1B2B14
:1028F00005DD019B01251D400024002346E7221C25
:10290000DA404B469E339C40231C5C1EA34113437C
:10291000580704D00F221A40042A00D004335A0169
:1029200005D5019B01251D40002401232EE70198B8
:102930009C010125640A0540002327E78027FF0347
:10294000019B3C43640201251D40640AFF231DE7EF
:10295000E4400000FFFFFFF7F8B5C20F4302440058
:102960004D024800240E161C9B09000EC90FAD092C
:10297000FF2800D183E0012779408A425CD0221AE7
:10298000002A00DC8EE000281ED1002D00D07AE065
:10299000580704D00F221A40042A00D004338021A3
:1029A000C90401221940324000293AD00134FF2CD9
:1029B00000D183E09B015B0A5B02E4B2E405580AA4
:1029C000D20720431043F8BDFF2CE1D08021C90479
:1029D0000D431B2A00DD31E1291C2020D140821A41
:1029E00095406A1E95410D435B1B5801D0D59B0154
:1029F0009F09381C00F0DCF9421F974094425FDCCD
:102A0000141B1F231B1B3A1C9F40611C3B1CCA400C
:102A10005F1EBB4113430024BAE7131EB8D1002345
:102A20000022DB08FF2C04D1002B47D08020C003FC
:102A300003435B025B0ABFE7211A002944DD00283B
:102A400027D0FF2CA4D08020C00405431B2900DD23
:102A5000F2E0281C2027C840791A8D40691E8D415C
:102A600005435B19590100D492E70134FF2C59D07A
:102A7000734901221A400B405B08134388E7002D7D
:102A800000D07AE777E7013A002AADD0FF2CA0D139
:102A90007EE7002D00D17BE701390029E1D0FF2C32
:102AA000D4D175E7002A1BD1621CD2B2012A4BDDBA
:102AB0005F1B7A0123D5EF1A0E1C9AE700237BE7F0
:102AC0005F4BA41A3B4063E7002946D1611CC8B2A2
:102AD000012829DDFF2924D0EB185B080C1C57E7DF
:102AE000002C13D0FF2818D08024E4045242234342
:102AF0001B2A4DDD0123EB1A041C0E1C75E7002F69
:102B000000D076E70023002200248AE7002B3BD088
:102B1000D243002AEFD0FF28EAD12B1CFF240E1C41
:102B200036E7FF2400237CE7002C5CD1002B00D18A
:102B300080E0002D00D12BE75B19580100D427E776
:102B40003F4A0124134023E7002C15D1002B40D12C
:102B5000002D63D02B1C0E1C1AE7002C21D1002B5A
:102B600054D0C943002904D0FF284CD01B2958DD7C
:102B700001235B19041C75E7002B19D1002D48D0E7
:102B80002B1C0E1CFF2403E72B1C041C0E1CFFE651
:102B90001C1C2026D440B21A93405A1E9341234352
:102BA000A9E7FF282FD08024E40449422343DDE72E
:102BB000FF24002D00D1EBE68022DB08D203134274
:102BC00004D0ED08154201D12B1C0E1CDB00FF24A4
:102BD000DEE6002D00D1DBE65A1B500100D41CE7D5
:102BE000EB1A0E1CD4E6002B0DD0FF24002D00D1D3
:102BF000CEE68022DB08D2031342E7D0ED0815426F
:102C0000E4D12B1CE2E72B1CFF24C1E62B1C041C87
:102C1000BEE6802300229B04FF2402E7231C00223F
:102C2000FFE61C1C2027CC40791A8B40591E8B4193
:102C300023439EE72B1CABE6012512E70125D3E6D3
:102C4000FFFFFFFB4302590A4300C20F1B0E002087
:102C50007E2B0DDD9D2B0CDC802000040143952B89
:102C60000ADC9620C31AD9404842002A00D1081C29
:102C70007047034BD018FBE7963B9940F4E7C046FA
:102C8000FFFFFF7F70B5041E3CD0C60F00D044424A
:102C9000201C00F08DF89E23251C1B1A962B0CDCA3
:102CA000083884406402640ADBB2321C6402DB052B
:102CB000600AD2071843104370BD992B0ADD052224
:102CC000121A211CD1400A1C011C1B318D40691EA7
:102CD0008D411543052801DD421F9540164C2C40BF
:102CE0006A0704D00F221540042D00D0043461017E
:102CF0000CD59F23181AFF281AD0A401640AC3B266
:102D0000321CD3E7002200230024CFE7E408FF2B86
:102D100004D06402640ADBB2321CC7E7002C04D082
:102D20008020C00304436402640A321CFF23BDE711
:102D3000321CFF230024B9E7FFFFFFFB8446081C79
:102D40006146FFE71FB500F0C3F8002801D4002159
:102D5000C8421FBD10B500F049F84042013010BD17
:102D600010B500F0B5F8002801DB002010BD0120EF
:102D700010BDC04610B500F0ABF8002801DD002002
:102D800010BD012010BDC04610B500F059F8002854
:102D900001DC002010BD012010BDC04610B500F0C0
:102DA0004FF8002801DA002010BD012010BDC046F8
:102DB0001C2101231B04984201D3000C10391B0A6B
:102DC000984201D3000A08391B09984201D300092F
:102DD000043902A2105C40187047C0460403020286
:102DE0000101010100000000000000004A0243024E
:102DF00070B55C0A550A43004A001B0EC60F120E3E
:102E0000C90FFF2B05D0FF2A08D0012093420BD019
:102E100070BD0120002CFBD1FF2AF6D10120002D2E
:102E2000F6D101209342F3D1AC42F1D18E4205D0CC
:102E3000002BEDD1201C441EA041E9E70020E7E76C
:102E40004A024302F0B55C0A550A43004A001B0ED1
:102E5000C60F120EC90FFF2B31D0FF2A34D0002B22
:102E600016D1604260418446002A14D0002820D147
:102E70008E4217D1934215DC04DBAC4212D80020FD
:102E8000AC4212D2704270414042012318430CE020
:102E9000002AEDD194466F426F416046002805D16B
:102EA000002FE5D0704201231843F0BD0020002F11
:102EB000FBD148424841404201231843F5E7002C2A
:102EC000CBD002204042F0E7002DC8D0F9E7C04641
:102ED0004A024302F0B55C0A550A43004A001B0E41
:102EE000C60F120EC90FFF2B27D0FF2A29D0002BA7
:102EF00010D0002A15D194466F426F4160460028D9
:102F000015D00020002F04D14842484140420123FF
:102F10001843F0BD604260418446002AECD000288E
:102F2000F2D18E4211D0704201231843F1E7002FF5
:102F3000F7D0704201231843EBE70220002CE8D1C0
:102F4000D3E70220002DE4D1D1E79342EBDC04DB90
:102F5000AC42E8D80020AC42DBD270427041404223
:102F600001231843D5E7C04670B50E4B0E4D002423
:102F7000ED1AAD101E1CAC4204D0A300F3589847C4
:102F80000134F8E701F01CF9084B094D0024ED1A53
:102F9000AD101E1CAC4204D0A300F3589847013476
:102FA000F8E770BDCC410000CC410000CC410000EE
:102FB000D041000010B50023934203D0CC5CC45430
:102FC0000133F9E710BD031C8218934202D0197037
:102FD0000133FAE7704700000FB40B4B13B51C68C0
:102FE000002C05D0A369002B02D1201C00F02CFD81
:102FF00005ABA168201C049A019300F0BFF816BC31
:1030000008BC04B01847C0467000002008B54A420A
:103010004A4180235200DB0000F002F808BD0000A6
:10302000F7B51E1C3C4B041C1D680F1C0192002DA3
:1030300005D0AA69002A02D1281C00F005FD374BF3
:103040009C4201D16C6808E0354B9C4201D1AC68D0
:1030500003E0344B9C4200D1EC68019B022B57D813
:10306000002E55DB281C211C00F06EFC0023636041
:10307000A361A3891A0603D5281C216900F0BAFDB3
:10308000A38983229343A381019B022B13D0002F9A
:1030900025D1002E01D18026F600301C00F094FDD1
:1030A000071E18D18020C00000F08EFD071E10D131
:1030B0000120404200E00020A38902221343A381A3
:1030C0000023A360231C4733236023610123636132
:1030D00020E08026F600A38980221343A381019A71
:1030E000012A04D1A3891343A3817342A3610E4B28
:1030F0000020AB62A3892760276166611A0709D5A2
:10310000032213405A4253415B421E40A66001E035
:1031100001204042FEBDC04670000020604100001A
:1031200080410000A0410000A1390000936810B563
:10313000013B9360002B05DA9469A34208DBCBB214
:103140000A2B05D01368581C10601970C8B201E032
:1031500000F0A6FA10BDF8B5061C0F1C141CD518FB
:10316000AC4208D02178301C3A1CFFF7DFFF013455
:10317000431CF5D100E00020F8BD0000F0B59FB081
:10318000061C0F1C03920593002804D081690029B6
:1031900001D100F059FC754B9F4201D1776808E0DE
:1031A000734B9F4201D1B76803E0724B9F4200D13D
:1031B000F768BB891A070AD53B69002B07D006AD13
:1031C00000236B6120236B763023AB763BE0301C11
:1031D000391C00F0BDFA0028F1D001204042C2E0C5
:1031E000059A111D12680591002A76DB09920134B7
:1031F00023782E2B00D181E021785F48032200F054
:10320000EDFC002807D05C492A68431A402098400A
:103210001043286001342178631C58480622039328
:10322000297600F0DBFC002800D18AE0544B002B0B
:103230007ED1059B072207339343083305936A69C0
:10324000049953186B61039C2378002B04D10399D4
:10325000611A029110D003E0252BF8D00134F3E776
:10326000301C391C039A029BFFF775FF013075D0A3
:103270006A69029953186B612378002B6ED0012282
:1032800052426A606A4600235B3201342B60EB6075
:10329000AB601370AB6521783A48052200F09EFCC4
:1032A000002808D0374A0134831A012098402B683F
:1032B00018432860EFE72B68D90603D56A4620211A
:1032C0005B3211701A0703D56A462B215B321170ED
:1032D00022782A2A84D0099B05E05242EA60022221
:1032E00013432B6083E72278303A092A04D80A2155
:1032F0004B4301349B18F6E7099379E763782A2B4F
:1033000009D1059B02341A1D1B680592002B0DDAAA
:1033100001235B420AE0013400232278303A092A73
:1033200004D80A214B4301349B18F6E7079363E75F
:1033300005AB0093301C291C3A1C134B00E000BF66
:1033400007E005AB0093301C291C3A1C0E4B00F023
:1033500091F804900499013100D070E7BB895A06B6
:1033600000D53AE70B981FB0F0BDC04660410000A1
:1033700080410000A04100003241000036410000C1
:10338000000000002C41000057310000F7B5151C6B
:1033900001930A698B68061C0C1C934200DA131C0B
:1033A000221C2B6043321278002A01D001332B609B
:1033B0002068800602D52B6802332B60216806271F
:1033C0000F401FD0231C43331B785A1E93412268A1
:1033D00092061FD5E11840313020C870211C5A1CBC
:1033E00045310978A21840320233D17012E0221C14
:1033F000301C019919320123089FB847013011D0C0
:10340000009F01370097E0682968009F431A9F4298
:10341000EDDBD7E7221C301C01994332089FB847E7
:10342000013002D10120404223E0206806212B68B0
:10343000E26801400025042903D1D51AEB43DB17CC
:103440001D40A26823699A4201DDD31AED180027B6
:103450000097009FAF420BDA221C301C01991A32F0
:103460000123089FB8470130DCD0009F0137EFE708
:103470000020FEBDF0B50D1C8BB0433506920590C3
:10348000079304950B7E0C1C109A6E2B00D1A7E0BD
:1034900011D8632B22D009D8002B00D1B0E0582BD3
:1034A00000D0C0E045310B707B4D4EE0642B1CD04A
:1034B000692B1AD0B7E0732B00D1A5E009D86F2B88
:1034C00029D0702B00D0AEE00E68202333430B6070
:1034D00036E0752B1FD0782B32D0A4E013680D1C7A
:1034E000191D423511601B689FE0216813680E06A4
:1034F00003D5191D11601E6805E04806F9D5191D90
:10350000116000215E5E644B002E3BDA049D2D228B
:1035100076422A7036E0216813680E0603D5191D1D
:1035200011601E6804E04806F9D5191D1E88116057
:10353000594B227E039308276F2A1ED00A271CE0CE
:10354000231C78214533554D197011682368081DD7
:10355000039510601E0601D50E6802E05806FBD5E3
:103560000E88D90702D52022134323601027002E8E
:1035700003D1226820239A432260231C0022433374
:103580001A7001E003930A276368A360002B03DB32
:103590002568042295432560002E02D1049D002B4E
:1035A0000ED0049D301C391CFEF7FAFE0398013D35
:1035B000435C301C2B70391CFEF7AEFE061EF1D1A9
:1035C000082F09D12168C90706D5626823699A4284
:1035D00002DC013D30232B70049E731B23612AE023
:1035E000086813684969050604D5181D10601B6832
:1035F000196005E04606F8D5181D10601B68198093
:1036000000232361049D16E01368191D11601D68D5
:10361000281C00F0E9FB63682061984200D923610F
:103620002069606004E0251C42352B700123236172
:10363000049E00233370079E05980096211C09AA5A
:10364000069BFFF7A3FE013002D10120404221E09A
:103650002A1C059806992369079DA8470130F4D0D4
:103660002668B60705D4099BE068984212DA181C50
:1036700010E00025E0680999431A9D42F3DA221C04
:103680000598069919320123079EB0470130DCD016
:103690000135EFE70BB0F0BD3D4100004E410000A9
:1036A00070B5051C0E1C141C002804D08269002A69
:1036B00001D100F0C9F9234B9C4201D16C6808E0AC
:1036C000214B9C4201D1AC6803E0204B9C4200D1CD
:1036D000EC68A369A360A3891A070AD52369002BA4
:1036E00007D022682369F6B2D01A626990420FDBD4
:1036F00008E0281C211C00F02BF80028F1D0012044
:1037000040421DE0281C211C00F01EF90028F6D1C3
:10371000A3680130013BA36023685A1C22601E701D
:103720006369984205D0A389301CDA0708D50A2EB0
:1037300006D1281C211C00F007F90028DFD1301C1D
:1037400070BDC0466041000080410000A041000003
:10375000344B70B51D68061C0C1C002D05D0A969E2
:10376000002902D1281C00F06FF92F4B9C4201D197
:103770006C6808E02D4B9C4201D1AC6803E02C4BF7
:103780009C4200D1EC68A28993B2190721D4D906D2
:1037900005D40923336040231A43A2813FE05A072E
:1037A00013D5616B002908D0231C4433994202D001
:1037B000301C00F01FFA00236363A3892422934383
:1037C000A3810023636023692360A3890822134334
:1037D000A381216900290BD1A389A02292001A405C
:1037E00080239B009A4203D0301C211C00F09CF9DE
:1037F000A38901221A4005D061690022A2604A42D1
:10380000A26103E0990700D46269A26022690020E6
:10381000824206D1190604D540221343A381012018
:10382000404270BD700000206041000080410000F7
:10383000A0410000F7B58B89051C0C1C19075ED44C
:103840006268002A02DC276C002F1ADDE76A002F6D
:1038500017D000222E682A60802252011A4001D01F
:10386000626D15E0281C216A0123B847021C411C27
:103870000ED12B68002B0BD01D2B01D0162B02D1A3
:103880002E6000205EE0A38940210B43A38159E014
:10389000A3895F0706D56168636B521A002B01D0BC
:1038A000276CD21B281C216A0023E76AB847A2892B
:1038B000411C06D12B68002B03D01D2B01D0162BE9
:1038C00019D10023636023692360D70405D5411C07
:1038D00002D12A68002A00D16065616B2E60002940
:1038E000CFD0231C4433994202D0281C00F082F927
:1038F0000020606326E040231A43A28122E026696B
:10390000002EBED027680022BF1B019726609907B2
:1039100000D16269A260019F002FB2DD281C216ADC
:10392000321C019BA76AB847002806DCA389402205
:1039300013430120A381404204E0019F36183F1A3F
:103940000197E8E7FEBD00000A6938B5051C0C1CAC
:10395000002A01D100201CE0002804D08369002B3C
:1039600001D100F071F80B4B9C4201D16C6808E06A
:10397000094B9C4201D1AC6803E0084B9C4200D14A
:10398000EC680C22A35E002BE4D0281C211CFFF75E
:1039900051FF38BD6041000080410000A04100009F
:1039A000F8B5041C071C4834002C12D0A5686668C2
:1039B000013E0CD4AB89012B07D90E22AB5E01333B
:1039C00003D0381C291CFFF7BFFF6835F0E72468D7
:1039D000EAE7F8BD002310B5041C03604360836070
:1039E00081814366C281036143618361191C08229E
:1039F0005C30FFF7E8FA054B24626362044BA36274
:103A0000044BE362044B236310BDC046513D0000EC
:103A1000793D0000B13D0000DD3D000070B54B1E5A
:103A200068255D430E1C291C743100F02BF9041E1F
:103A300008D00021016046602A1C0C30A06068326A
:103A4000FFF7C1FA201C70BD836913B5041C002B5D
:103A500027D18364C3640365124B134A1B688262D7
:103A6000984201D101238361201C00F01FF860609F
:103A7000201C00F01BF8A060201C00F017F80421A7
:103A8000E06000226068FFF7A5FFA068092101221D
:103A9000FFF7A0FFE06812210222FFF79BFF01233E
:103AA000A36113BD28410000A1390000F8B51D4BEA
:103AB000071C1E68B269002A02D1301CFFF7C4FF40
:103AC0004836B4687368013B05D40C22A55E002D0E
:103AD00010D06834F7E73368002B06D1381C042176
:103AE000FFF79CFF3060002801D03668E9E70C231F
:103AF0003B6016E001235B42E381201C0123A3818C
:103B000065662560A560656025616561A5615C30BD
:103B1000291C0822FFF757FA6563A563A564E564CD
:103B2000201CF8BD28410000F0B58B8991B0051C20
:103B30000C1C9A0725D40E23C95E002906DAA78932
:103B400080231F400FD0002740260EE001AA00F07E
:103B500079F90028F3DB029BF0273F02184A1F4047
:103B6000BF187B425F418026F600281C311C00F004
:103B700089F800280CD1A3899A051FD40222134387
:103B8000A381231C4733236023610123636115E074
:103B90000C4B8022AB62A38920601343A381206178
:103BA0006661002F0AD00E23E15E281C00F05CF94C
:103BB000002803D0A38901221343A38111B0F0BDD3
:103BC00000E0FFFFA139000008B5034B011C186895
:103BD00000F058F808BDC04670000020C9B2821835
:103BE000904204D003788B4202D00130F8E70020E5
:103BF0007047000030B5002940D004390B68002B15
:103C000000DAC9181E4A1368141C002B02D14B603D
:103C1000116033E099420FD208680A189A4205D120
:103C200013685268C01808604A6000E04B60216069
:103C300024E08A4203D8131C5A68002AF9D11D686F
:103C40005C198C420BD109686918581819609042A8
:103C500014D114685268091919605A600EE08C4238
:103C600002D90C23036009E008680C18944203D1C0
:103C700014685268001908604A60596030BDC04637
:103C8000D800002070B50323CD1C9D430835061CC9
:103C90000C2D01D20C2501E0002D3FDB8D423DD3E0
:103CA000204B1C681A1C211C002913D00868431BD8
:103CB0000DD40B2B02D90B60CC181EE08C4202D124
:103CC000636813601AE0486860600C1C16E00C1C06
:103CD0004968E9E7144C2068002803D1301C00F043
:103CE00025F82060301C291C00F020F8431C15D05A
:103CF000C41C03239C4384420AD12560201C0B3042
:103D00000722231D9043C31A0BD05A42E25008E009
:103D1000211A301C00F00AF80130EED10C23336078
:103D2000002070BDD8000020D400002038B5074C1A
:103D30000023051C081C2360FEF776F9431C03D101
:103D40002368002B00D02B6038BDC046A4010020A2
:103D500038B50C1C0E25495F00F0ACF8002803DBD9
:103D6000626D1318636503E0A289024B1340A381BF
:103D700038BDC046FFEFFFFFF8B51E1C8B89051C40
:103D80000C1C171CDA0505D50E23C95E0022022380
:103D900000F07CF8A289054B281C1340A3810E2259
:103DA000A15E331C3A1C00F027F8F8BDFFEFFFFFBF
:103DB00038B50C1C0E25495F00F068F8A389421C39
:103DC00003D1054A1340A38104E08022520113432A
:103DD000A381606538BDC046FFEFFFFF08B50E2325
:103DE000C95E00F01DF808BD0023C25C0133002A43
:103DF000FBD1581E7047000038B5084C051C002048
:103E00002060081C111C1A1CFDF732FA431C03D158
:103E10002368002B00D02B6038BDC046A4010020D1
:103E200038B5074C0023051C081C2360FEF70EF96B
:103E3000431C03D12368002B00D02B6038BDC04643
:103E4000A401002038B5074C0023051C081C111CD8
:103E50002360FEF7FFF8431C03D12368002B00D03A
:103E60002B6038BDA401002038B5074C0023051C89
:103E7000081C2360FEF7F4F8431C03D12368002BD1
:103E800000D02B6038BDC046A401002038B5084CD6
:103E9000051C00202060081C111C1A1CFEF7E2F80B
:103EA000431C03D12368002B00D02B6038BDC046D3
:103EB000A401002038B5084C051C00202060081C17
:103EC000111C1A1CFDF7B2F9431C03D12368002B07
:103ED00000D02B6038BDC046A4010020256400003E
:103EE0001A1A1B000001000000020000000400007C
:103EF000FFFFFF00FFFFFF00FFFF000004020200C2
:103F0000080402000100000002000000040000009C
:103F10000800000000100000002000000040000029
:103F2000008000000000010000000200000004000A
:103F300000000800FE0A0000440D0000440D0000CF
:103F4000440D0000440D0000440D0000440D00002D
:103F5000440D0000440D0000440D0000440D00001D
:103F6000440D0000440D0000440D0000440D00000D
:103F7000440D0000E60A0000440D0000440D00005E
:103F8000440D0000440D0000440D0000440D0000ED
:103F9000440D0000440D0000440D0000440D0000DD
:103FA000440D0000440D0000440D0000440D0000CD
:103FB000440D0000F60A0000440D0000440D00000E
:103FC000440D0000440D0000440D0000440D0000AD
:103FD000440D0000440D0000440D0000440D00009D
:103FE000440D0000440D0000440D0000440D00008D
:103FF000440D0000EE0A0000CE0A0000060B00008F
:10400000DE0A0000D60A00000200000003000000E3
:104010002800000029000000040000000500000046
:104020000600000007000000200000002100000042
:1040300022000000230000002400000025000000F2
:104040002600000027000000080000000900000012
:104050000A0000000B00000000080042000C0042B3
:10406000001000420014004200180042001C0042F0
:10407000090A0B0C0D0E0000B8190000141A0000FC
:10408000141A0000B2190000B2190000CE19000085
:10409000BE190000D4190000021A00009C1A00008A
:1040A000FC1A0000FC1A00007C1A00008E1A0000A6
:1040B000AA1A0000801A0000B81A0000EC1A0000CA
:1040C000557020616E642072756E6E696E67210096
:1040D0006164632076616C75652D20002564200D78
:1040E000000000002C2800002628000026280000E0
:1040F0001C2800007C2700007C27000012280000FC
:104100001C2800007C270000122800007C270000EB
:104110001C2800007A2700007A2700007A27000078
:10412000B42800004300000010000020232D302B95
:104130002000686C4C0065666745464700303132A8
:1041400033343536373839414243444546003031FF
:10415000323334353637383961626364656600005E
:10416000000000000000000000000000000000004F
:10417000000000000000000000000000000000003F
:10418000000000000000000000000000000000002F
:10419000000000000000000000000000000000001F
:1041A000000000000000000000000000000000000F
:1041B00000000000000000000000000000000000FF
:1041C000F8B5C046F8BC08BC9E467047D900000050
:1041D000F8B5C046F8BC08BC9E467047B100000068
:1041E0000000304108000000401F000001000000F6
:1041F000000000006041000080410000A04100007C
:1042000000000000000000000000000000000000AE
:104210002441000000000000000000000000000039
:10422000000000000000000000000000000000008E
:10423000000000000000000000000000000000007E
:10424000000000000000000000000000000000006E
:04425000100000203A
:0400000300001F4991
:00000001FF
